{
  "_format": "hh-sol-artifact-1",
  "contractName": "Bank",
  "sourceName": "contracts/BankContract.sol",
  "abi": [
    {
      "inputs": [],
      "stateMutability": "nonpayable",
      "type": "constructor"
    },
    {
      "anonymous": false,
      "inputs": [
        {
          "indexed": false,
          "internalType": "address",
          "name": "_from",
          "type": "address"
        },
        {
          "indexed": false,
          "internalType": "address",
          "name": "_destAddr",
          "type": "address"
        },
        {
          "indexed": false,
          "internalType": "uint256",
          "name": "_amount",
          "type": "uint256"
        }
      ],
      "name": "TransferSent",
      "type": "event"
    },
    {
      "inputs": [],
      "name": "bankName",
      "outputs": [
        {
          "internalType": "string",
          "name": "",
          "type": "string"
        }
      ],
      "stateMutability": "view",
      "type": "function"
    },
    {
      "inputs": [],
      "name": "bankOwner",
      "outputs": [
        {
          "internalType": "address",
          "name": "",
          "type": "address"
        }
      ],
      "stateMutability": "view",
      "type": "function"
    },
    {
      "inputs": [
        {
          "internalType": "address",
          "name": "",
          "type": "address"
        }
      ],
      "name": "customerBalance",
      "outputs": [
        {
          "internalType": "uint256",
          "name": "",
          "type": "uint256"
        }
      ],
      "stateMutability": "view",
      "type": "function"
    },
    {
      "inputs": [],
      "name": "depositMoney",
      "outputs": [],
      "stateMutability": "payable",
      "type": "function"
    },
    {
      "inputs": [],
      "name": "getBankBalance",
      "outputs": [
        {
          "internalType": "uint256",
          "name": "",
          "type": "uint256"
        }
      ],
      "stateMutability": "view",
      "type": "function"
    },
    {
      "inputs": [],
      "name": "getCustomerBalance",
      "outputs": [
        {
          "internalType": "uint256",
          "name": "",
          "type": "uint256"
        }
      ],
      "stateMutability": "view",
      "type": "function"
    },
    {
      "inputs": [
        {
          "internalType": "string",
          "name": "_name",
          "type": "string"
        }
      ],
      "name": "setBankName",
      "outputs": [],
      "stateMutability": "nonpayable",
      "type": "function"
    },
    {
      "inputs": [
        {
          "internalType": "contract IERC20",
          "name": "token",
          "type": "address"
        },
        {
          "internalType": "address",
          "name": "to",
          "type": "address"
        },
        {
          "internalType": "uint256",
          "name": "amount",
          "type": "uint256"
        }
      ],
      "name": "transferERC20",
      "outputs": [],
      "stateMutability": "nonpayable",
      "type": "function"
    },
    {
      "inputs": [
        {
          "internalType": "address payable",
          "name": "_to",
          "type": "address"
        },
        {
          "internalType": "uint256",
          "name": "_total",
          "type": "uint256"
        }
      ],
      "name": "withDrawMoney",
      "outputs": [],
      "stateMutability": "payable",
      "type": "function"
    }
  ],
  "bytecode": "0x608060405234801561001057600080fd5b50336000806101000a81548173ffffffffffffffffffffffffffffffffffffffff021916908373ffffffffffffffffffffffffffffffffffffffff1602179055506112b3806100606000396000f3fe6080604052600436106100865760003560e01c80637b83b50b116100595780637b83b50b146101265780639db5dbe414610151578063a853409a1461017a578063b39d7b7c146101a5578063e147aaa7146101c157610086565b806316c05aa21461008b57806327d358011461009557806337ebe47b146100c057806370142690146100fd575b600080fd5b6100936101ec565b005b3480156100a157600080fd5b506100aa610288565b6040516100b79190610cc0565b60405180910390f35b3480156100cc57600080fd5b506100e760048036038101906100e291906109b9565b610316565b6040516100f49190610da2565b60405180910390f35b34801561010957600080fd5b50610124600480360381019061011f9190610aa6565b61032e565b005b34801561013257600080fd5b5061013b6103d6565b6040516101489190610da2565b60405180910390f35b34801561015d57600080fd5b5061017860048036038101906101739190610a53565b61046d565b005b34801561018657600080fd5b5061018f61069a565b60405161019c9190610da2565b60405180910390f35b6101bf60048036038101906101ba91906109e6565b6106e1565b005b3480156101cd57600080fd5b506101d6610804565b6040516101e39190610c45565b60405180910390f35b6000341415610230576040517f08c379a000000000000000000000000000000000000000000000000000000000815260040161022790610d02565b60405180910390fd5b34600260003373ffffffffffffffffffffffffffffffffffffffff1673ffffffffffffffffffffffffffffffffffffffff168152602001908152602001600020600082825461027f9190610e2f565b92505081905550565b6001805461029590610f67565b80601f01602080910402602001604051908101604052809291908181526020018280546102c190610f67565b801561030e5780601f106102e35761010080835404028352916020019161030e565b820191906000526020600020905b8154815290600101906020018083116102f157829003601f168201915b505050505081565b60026020528060005260406000206000915090505481565b60008054906101000a900473ffffffffffffffffffffffffffffffffffffffff1673ffffffffffffffffffffffffffffffffffffffff163373ffffffffffffffffffffffffffffffffffffffff16146103bc576040517f08c379a00000000000000000000000000000000000000000000000000000000081526004016103b390610d62565b60405180910390fd5b80600190805190602001906103d2929190610828565b5050565b60008060009054906101000a900473ffffffffffffffffffffffffffffffffffffffff1673ffffffffffffffffffffffffffffffffffffffff163373ffffffffffffffffffffffffffffffffffffffff1614610467576040517f08c379a000000000000000000000000000000000000000000000000000000000815260040161045e90610d82565b60405180910390fd5b47905090565b60008054906101000a900473ffffffffffffffffffffffffffffffffffffffff1673ffffffffffffffffffffffffffffffffffffffff163373ffffffffffffffffffffffffffffffffffffffff16146104fb576040517f08c379a00000000000000000000000000000000000000000000000000000000081526004016104f290610d22565b60405180910390fd5b60008373ffffffffffffffffffffffffffffffffffffffff166370a08231306040518263ffffffff1660e01b81526004016105369190610c45565b60206040518083038186803b15801561054e57600080fd5b505afa158015610562573d6000803e3d6000fd5b505050506040513d601f19601f820116820180604052508101906105869190610aef565b9050808211156105cb576040517f08c379a00000000000000000000000000000000000000000000000000000000081526004016105c290610d42565b60405180910390fd5b8373ffffffffffffffffffffffffffffffffffffffff1663a9059cbb84846040518363ffffffff1660e01b8152600401610606929190610c97565b602060405180830381600087803b15801561062057600080fd5b505af1158015610634573d6000803e3d6000fd5b505050506040513d601f19601f820116820180604052508101906106589190610a26565b507ffda3a3e0e1479b43cb1c701f7576187f4c4ad80768d627387e00184302f7d88e33848460405161068c93929190610c60565b60405180910390a150505050565b6000600260003373ffffffffffffffffffffffffffffffffffffffff1673ffffffffffffffffffffffffffffffffffffffff16815260200190815260200160002054905090565b600260003373ffffffffffffffffffffffffffffffffffffffff1673ffffffffffffffffffffffffffffffffffffffff16815260200190815260200160002054811115610763576040517f08c379a000000000000000000000000000000000000000000000000000000000815260040161075a90610ce2565b60405180910390fd5b80600260003373ffffffffffffffffffffffffffffffffffffffff1673ffffffffffffffffffffffffffffffffffffffff16815260200190815260200160002060008282546107b29190610e85565b925050819055508173ffffffffffffffffffffffffffffffffffffffff166108fc829081150290604051600060405180830381858888f193505050501580156107ff573d6000803e3d6000fd5b505050565b60008054906101000a900473ffffffffffffffffffffffffffffffffffffffff1681565b82805461083490610f67565b90600052602060002090601f016020900481019282610856576000855561089d565b82601f1061086f57805160ff191683800117855561089d565b8280016001018555821561089d579182015b8281111561089c578251825591602001919060010190610881565b5b5090506108aa91906108ae565b5090565b5b808211156108c75760008160009055506001016108af565b5090565b60006108de6108d984610de2565b610dbd565b9050828152602081018484840111156108fa576108f961105c565b5b610905848285610f25565b509392505050565b60008135905061091c8161120a565b92915050565b60008135905061093181611221565b92915050565b60008151905061094681611238565b92915050565b60008135905061095b8161124f565b92915050565b600082601f83011261097657610975611057565b5b81356109868482602086016108cb565b91505092915050565b60008135905061099e81611266565b92915050565b6000815190506109b381611266565b92915050565b6000602082840312156109cf576109ce611066565b5b60006109dd8482850161090d565b91505092915050565b600080604083850312156109fd576109fc611066565b5b6000610a0b85828601610922565b9250506020610a1c8582860161098f565b9150509250929050565b600060208284031215610a3c57610a3b611066565b5b6000610a4a84828501610937565b91505092915050565b600080600060608486031215610a6c57610a6b611066565b5b6000610a7a8682870161094c565b9350506020610a8b8682870161090d565b9250506040610a9c8682870161098f565b9150509250925092565b600060208284031215610abc57610abb611066565b5b600082013567ffffffffffffffff811115610ada57610ad9611061565b5b610ae684828501610961565b91505092915050565b600060208284031215610b0557610b04611066565b5b6000610b13848285016109a4565b91505092915050565b610b2581610eb9565b82525050565b6000610b3682610e13565b610b408185610e1e565b9350610b50818560208601610f34565b610b598161106b565b840191505092915050565b6000610b71602583610e1e565b9150610b7c8261107c565b604082019050919050565b6000610b94602983610e1e565b9150610b9f826110cb565b604082019050919050565b6000610bb7601d83610e1e565b9150610bc28261111a565b602082019050919050565b6000610bda600e83610e1e565b9150610be582611143565b602082019050919050565b6000610bfd603183610e1e565b9150610c088261116c565b604082019050919050565b6000610c20603683610e1e565b9150610c2b826111bb565b604082019050919050565b610c3f81610f1b565b82525050565b6000602082019050610c5a6000830184610b1c565b92915050565b6000606082019050610c756000830186610b1c565b610c826020830185610b1c565b610c8f6040830184610c36565b949350505050565b6000604082019050610cac6000830185610b1c565b610cb96020830184610c36565b9392505050565b60006020820190508181036000830152610cda8184610b2b565b905092915050565b60006020820190508181036000830152610cfb81610b64565b9050919050565b60006020820190508181036000830152610d1b81610b87565b9050919050565b60006020820190508181036000830152610d3b81610baa565b9050919050565b60006020820190508181036000830152610d5b81610bcd565b9050919050565b60006020820190508181036000830152610d7b81610bf0565b9050919050565b60006020820190508181036000830152610d9b81610c13565b9050919050565b6000602082019050610db76000830184610c36565b92915050565b6000610dc7610dd8565b9050610dd38282610f99565b919050565b6000604051905090565b600067ffffffffffffffff821115610dfd57610dfc611028565b5b610e068261106b565b9050602081019050919050565b600081519050919050565b600082825260208201905092915050565b6000610e3a82610f1b565b9150610e4583610f1b565b9250827fffffffffffffffffffffffffffffffffffffffffffffffffffffffffffffffff03821115610e7a57610e79610fca565b5b828201905092915050565b6000610e9082610f1b565b9150610e9b83610f1b565b925082821015610eae57610ead610fca565b5b828203905092915050565b6000610ec482610efb565b9050919050565b6000610ed682610efb565b9050919050565b60008115159050919050565b6000610ef482610eb9565b9050919050565b600073ffffffffffffffffffffffffffffffffffffffff82169050919050565b6000819050919050565b82818337600083830152505050565b60005b83811015610f52578082015181840152602081019050610f37565b83811115610f61576000848401525b50505050565b60006002820490506001821680610f7f57607f821691505b60208210811415610f9357610f92610ff9565b5b50919050565b610fa28261106b565b810181811067ffffffffffffffff82111715610fc157610fc0611028565b5b80604052505050565b7f4e487b7100000000000000000000000000000000000000000000000000000000600052601160045260246000fd5b7f4e487b7100000000000000000000000000000000000000000000000000000000600052602260045260246000fd5b7f4e487b7100000000000000000000000000000000000000000000000000000000600052604160045260246000fd5b600080fd5b600080fd5b600080fd5b600080fd5b6000601f19601f8301169050919050565b7f596f75206861766520696e7375666669656e742066756e647320746f2077697460008201527f6864726177000000000000000000000000000000000000000000000000000000602082015250565b7f596f75206e65656420746f206465706f73697420736f6d6520616d6f756e742060008201527f6f66206d6f6e6579210000000000000000000000000000000000000000000000602082015250565b7f4f6e6c79206f776e65722063616e2077697468647261772066756e6473000000600082015250565b7f62616c616e6365206973206c6f77000000000000000000000000000000000000600082015250565b7f596f75206d75737420626520746865206f776e657220746f207365742074686560008201527f206e616d65206f66207468652062616e6b000000000000000000000000000000602082015250565b7f596f75206d75737420626520746865206f776e6572206f66207468652062616e60008201527f6b20746f2073656520616c6c2062616c616e6365732e00000000000000000000602082015250565b61121381610eb9565b811461121e57600080fd5b50565b61122a81610ecb565b811461123557600080fd5b50565b61124181610edd565b811461124c57600080fd5b50565b61125881610ee9565b811461126357600080fd5b50565b61126f81610f1b565b811461127a57600080fd5b5056fea264697066735822122072cd9e19724fe59e8dd363d76505d583577ae6b48d8983173fe68cdb8499cfb764736f6c63430008070033",
  "linkReferences": {},
  "deployedLinkReferences": {}
}